S0130000706F6C6C696E675461736B2E7372656389
S11300000C942A000C9447000C9447000C9447006D
S11300100C9447000C9447000C9447000C94470040
S11300200C9447000C9447000C9498030C946E03B2
S11300300C9447000C9447000C9447000C94470020
S11300400C9447000C9447000C9447000C94470010
S11300500C94470011241FBECFE5D8E0DEBFCDBF0E
S113006010E0A0E6B0E0ECE9FDE002C005900D92DE
S1130070AA3BB107D9F720E0AAEBB0E001C01D927A
S1130080A83CB207E1F70E9424020C94CC060C941D
S11300900000683008F06FC0843008F06CC0813014
S11300A001F130F08230B1F1833009F44CC008958D
S11300B0413059F42AB381E090E002C0880F991FBF
S11300C06A95E2F7822B8ABB08952AB381E090E017
S11300D002C0880F991F6A95E2F7809582238ABB34
S11300E00895413059F427B381E090E002C0880FAD
S11300F0991F6A95E2F7822B87BB089527B381E0A5
S113010090E002C0880F991F6A95E2F780958223D8
S113011087BB0895413059F424B381E090E002C0D4
S1130120880F991F6A95E2F7822B84BB089524B344
S113013081E090E002C0880F991F6A95E2F78095EC
S1130140822384BB0895413059F421B381E090E0C7
S113015002C0880F991F6A95E2F7822B81BB08952C
S113016021B381E090E002C0880F991F6A95E2F7FD
S11301708095822381BB0895683008F06FC0843075
S113018008F06CC0813001F130F08230B1F183307D
S113019009F44CC00895413059F42BB381E090E048
S11301A002C0880F991F6A95E2F7822B8BBB0895D2
S11301B02BB381E090E002C0880F991F6A95E2F7A3
S11301C0809582238BBB0895413059F428B381E094
S11301D090E002C0880F991F6A95E2F7822B88BBD2
S11301E0089528B381E090E002C0880F991F6A95B2
S11301F0E2F78095822388BB0895413059F425B3F2
S113020081E090E002C0880F991F6A95E2F7822B83
S113021085BB089525B381E090E002C0880F991F43
S11302206A95E2F78095822385BB0895413059F49D
S113023022B381E090E002C0880F991F6A95E2F72B
S1130240822B82BB089522B381E090E002C0880F24
S1130250991F6A95E2F78095822382BB08958430C2
S113026078F4813041F028F0823039F0833039F06D
S113027008956ABB089567BB089564BB089561BB84
S11302800895843078F4813041F028F0823039F0D8
S1130290833039F008956BBB089568BB089565BB3E
S11302A0089562BB0895CF93C82F40E064E083E0D3
S11302B00E94BC0040E065E083E00E94BC0089EF3E
S11302C090E00197F1F700C0000041E066E083E0B0
S11302D00E94BC0089EF90E00197F1F700C0000094
S11302E06C2F82E00E94410189EF90E00197F1F7C1
S11302F000C0000040E066E083E00E94BC0089EF9B
S113030090E00197F1F700C00000CF91089541E01B
S113031064E083E00E94490041E065E083E00E94DC
S1130320490041E066E083E00E9449006FEF82E00B
S11303300E942F0188E30E9453018CE00E94530124
S113034081E00E9453010895CF93C82F41E064E0F7
S113035083E00E94BC0040E065E083E00E94BC00B2
S113036089EF90E00197F1F700C0000041E066E0FA
S113037083E00E94BC0089EF90E00197F1F700C090
S113038000006C2F82E00E94410189EF90E0019708
S1130390F1F700C0000040E066E083E00E94BC008A
S11303A089EF90E00197F1F700C00000CF91089524
S11303B00F931F93CF938C01C0E003C00E94A4014C
S11303C0CF5FF801EC0FF11D80818111F7CFCF9140
S11303D01F910F910895813031F070F0823031F027
S11303E0833039F00AC090E4960F07C090E1960F6D
S11303F004C090E5960F01C0962F892F80680E9453
S113040053010895CF93DF93CDB7DEB760970FB64E
S1130410F894DEBF0FBECDBF4AE050E0BE016F5F6F
S11304207F4F0E948C06CE0101960E94D8016096EF
S11304300FB6F894DEBF0FBECDBFDF91CF91089504
S113044081E00E945301089582E090E00E945B03E2
S11304500E944C030E940C03FDCFFC0114A215A2C0
S113046016A217A210A611A612A613A614A615A6C4
S113047016A617A610AA11AA12AA13AA14AA15AA94
S113048016AA17AA08950E9429040E94F1030E9443
S113049039059B01603871050CF03A95C90108953E
S11304A08F929F92AF92BF92CF92DF92EF92FF9280
S11304B0CF93DF93EC01992314F4CEE1D0E0BE0195
S11304C00D2E000C880B990B0E94710520E030E082
S11304D040EF51E40E945A044B015C012091BE009C
S11304E03091BF004091C0005091C1000E945B0454
S11304F06B017C016093BE007093BF008093C000C9
S11305009093C1002DEC3CEC4CEC5DE3C501B401CF
S11305100E94FD054B015C012AE037ED43E25CE3F8
S1130520C701B6010E94FD059B01AC01C501B401E0
S11305300E945B046093BA007093BB008093BC007C
S11305409093BD000E9420022FE58AEE90E0215096
S113055080409040E1F700C000008EE990E00E94E6
S1130560D801CE010E94020260E081E00E94EB010A
S11305708CEA90E00E94D8016091BA007091BB00AF
S11305808091BC009091BD000E943905CB010E946E
S1130590020286EB90E00E94D8016091BE00709147
S11305A0BF008091C0009091C1000E943905CB0129
S11305B00E9402026E97D4F06091BA007091BB0061
S11305C08091BC009091BD0020E030E040E551E412
S11305D00E94C70426E636E24AE353E40E94FD057E
S11305E00E944005862F0E94C2030BC080E00E9437
S11305F0C2031092BA001092BB001092BC00109279
S1130600BD00DF91CF91FF90EF90DF90CF90BF902E
S1130610AF909F908F9008958091640090916500B1
S1130620892B81F08091C2009091C300A091C400F5
S1130630B091C500892B8A2B8B2B21F40E94430295
S11306400E9450028091C2009091C300A091C40006
S1130650B091C5008C599F4FAF4FBF4F8093C200DC
S11306609093C300A093C400B093C5004091600070
S11306705091610060916200709163008417950746
S1130680A607B70744F01092C2001092C30010925C
S1130690C4001092C500089581E090E09093650035
S11306A0809364000E9487010E94EB0386E690E039
S11306B00E942D020895DC0120E432E44FE050E072
S11306C00E946A06609360007093610080936200E8
S11306D09093630008950E940C0308951F920F9253
S11306E00FB60F9211242F933F934F935F936F9301
S11306F07F938F939F93AF93BF93EF93FF938091D7
S1130700C6009091C700892B11F00E946B03FF91E2
S1130710EF91BF91AF919F918F917F916F915F9175
S11307204F913F912F910F900FBE0F901F901895EE
S11307301F920F920FB60F9211242F933F934F9352
S11307405F936F937F938F939F93AF93BF93EF9335
S1130750FF938091C6009091C700892B11F00E94ED
S11307606B03FF91EF91BF91AF919F918F917F9117
S11307706F915F914F913F912F910F900FBE0F900A
S11307801F90189512BE9AE693BF8CBF41E063E0B8
S113079081E00E944900089541E064E081E00E9404
S11307A0490041E065E081E00E94490040E066E0E4
S11307B081E00E94490041E067E081E00E94490035
S11307C080E58DB98EB18E7F8EB908958FB9779BF0
S11307D0FECF8FB108950E94CC0388B38F7E88BB6F
S11307E00895CF92DF92EF92FF92CF93C82F692F93
S11307F0792F770F770B072E000C880B990B0E942B
S113080071056B017C016C2F607CB9F06295669573
S11308106695637070E080E090E00E94710520E0CE
S113082030E040E85EE30E94FD059B01AC01C70196
S1130830B6010E945B046B017C01A7019601C7010C
S1130840B6010E945B04CF91FF90EF90DF90CF90B0
S11308500895CF93DF9388B3806188BB80E80E94BA
S1130860E60380E10E94E60388B38F7E88BB2FE510
S11308703AEE80E0215030408040E1F700C00000B3
S113088088B3806188BB82E00E94E6038FEF0E94F8
S1130890E603C82FD0E08FEF0E94E60398B39F7E53
S11308A098BBDC2FCC279E01280F311DC901DF9195
S11308B0CF9108955058BB27AA270E9472040C9424
S11308C0C3050E94B50538F00E94BC0520F039F438
S11308D09F3F19F426F40C94B2050EF4E095E7FB5F
S11308E00C94AC05E92F0E94D40558F3BA1762079B
S11308F073078407950720F079F4A6F50C94F605A0
S11309000EF4E0950B2EBA2FA02D0B01B901900126
S11309100C01CA01A0011124FF27591B99F0593F6A
S113092050F4503E68F11A16F040A22F232F342FB2
S11309304427585FF3CF469537952795A795F04000
S11309405395C9F77EF41F16BA0B620B730B840B15
S1130950BAF09150A1F0FF0FBB1F661F771F881FCD
S1130960C2F70EC0BA0F621F731F841F48F4879525
S113097077956795B795F7959E3F08F0B0CF939517
S1130980880F08F09927EE0F9795879508950E9490
S1130990DB040C94C3050E94BC0558F00E94B50505
S11309A040F029F45F3F29F00C94AC0551110C94EC
S11309B0F7050C94B2050E94D40568F39923B1F3AA
S11309C0552391F3951B550BBB27AA276217730771
S11309D0840738F09F5F5F4F220F331F441FAA1F05
S11309E0A9F335D00E2E3AF0E0E832D091505040C1
S11309F0E695001CCAF72BD0FE2F29D0660F771F6F
S1130A00881FBB1F261737074807AB07B0E809F054
S1130A10BB0B802DBF01FF2793585F4F3AF09E3FD9
S1130A20510578F00C94AC050C94F7055F3FE4F3A2
S1130A30983ED4F3869577956795B795F7959F5F1C
S1130A40C9F7880F911D9695879597F90895E1E068
S1130A50660F771F881FBB1F621773078407BA07C7
S1130A6020F0621B730B840BBA0BEE1F88F7E09522
S1130A7008950E9440056894B1110C94F7050895F7
S1130A800E94DC0588F09F5798F0B92F9927B75139
S1130A90B0F0E1F0660F771F881F991F1AF0BA951E
S1130AA0C9F714C0B13091F00E94F605B1E0089581
S1130AB00C94F605672F782F8827B85F39F0B93F73
S1130AC0CCF3869577956795B395D9F73EF49095D1
S1130AD08095709561957F4F8F4F9F4F0895E8944F
S1130AE009C097FB3EF490958095709561957F4F72
S1130AF08F4F9F4F9923A9F0F92F96E9BB27939520
S1130B00F695879577956795B795F111F8CFFAF42F
S1130B10BB0F11F460FF1BC06F5F7F4F8F4F9F4F60
S1130B2016C0882311F096E911C0772321F09EE8BE
S1130B30872F762F05C0662371F096E8862F70E024
S1130B4060E02AF09A95660F771F881FDAF7880FFE
S1130B509695879597F9089597F99F6780E870E0CF
S1130B6060E008959FEF80EC089500240A9416161F
S1130B70170618060906089500240A941216130687
S1130B80140605060895092E0394000C11F4882315
S1130B9052F0BB0F40F4BF2B11F460FF04C06F5F31
S1130BA07F4F8F4F9F4F089557FD9058440F551F07
S1130BB059F05F3F71F04795880F97FB991F61F0DB
S1130BC09F3F79F087950895121613061406551F52
S1130BD0F2CF4695F1DF08C0161617061806991FBE
S1130BE0F1CF86957105610508940895E894BB27B3
S1130BF066277727CB0197F908950E9410060C9475
S1130C00C3050E94B50538F00E94BC0520F0952369
S1130C1011F00C94AC050C94B20511240C94F70556
S1130C200E94D40570F3959FC1F3950F50E0551FB2
S1130C30629FF001729FBB27F00DB11D639FAA272D
S1130C40F00DB11DAA1F649F6627B00DA11D661F7C
S1130C50829F2227B00DA11D621F739FB00DA11D9D
S1130C60621F839FA00D611D221F749F3327A00D57
S1130C70611D231F849F600D211D822F762F6A2FF3
S1130C8011249F5750409AF0F1F088234AF0EE0F58
S1130C90FF1FBB1F661F771F881F91505040A9F785
S1130CA09E3F510580F00C94AC050C94F7055F3F12
S1130CB0E4F3983ED4F3869577956795B795F795C1
S1130CC0E7959F5FC1F7FE2B880F911D9695879539
S1130CD097F90895B7FF0C9472060E947206821B5E
S1130CE0930B08950E947D06A59F900DB49F900DCF
S1130CF0A49F800D911D11240895A29FB001B39F5C
S1130D00C001A39F700D811D1124911DB29F700D10
S1130D10811D1124911D08954532510520F442305E
S1130D2010F00C949706FB011082CB010895BB27A9
S1130D304A3031F4992322F4BDE2909581959F4F76
S1130D400C94A306BB27FB015527AA27880F991FDC
S1130D50AA1FA41710F0A41B83955051B9F7A05DE6
S1130D60AA3308F0A95DA193009779F7B111B19363
S1130D701192CB010C94BC06DC01FC01672F71912C
S1130D807723E1F7329704C07C916D93708362916D
S10F0D90AE17BF07C8F30895F894FFCF16
S1130D9C010000000100CDCCCC3D0AD7233C00005F
S1130DAC00000AD7A33C000020C100002041000031
S1130DBCA0C00000A0400AD7233C000000000000A3
S1130DCC0000000000000000000000000000746837
S1130DDC652074656D702069733A20005049442075
S10D0DEC4F55543A20002020000067
S9030000FC
